{
  "contractName": "Wallet",
  "abi": [
    {
      "inputs": [
        {
          "internalType": "bytes32",
          "name": "ticker",
          "type": "bytes32"
        },
        {
          "internalType": "enum Wallet.Side",
          "name": "side",
          "type": "uint8"
        }
      ],
      "name": "getOrderBook",
      "outputs": [
        {
          "components": [
            {
              "internalType": "uint256",
              "name": "id",
              "type": "uint256"
            },
            {
              "internalType": "address",
              "name": "trader",
              "type": "address"
            },
            {
              "internalType": "bool",
              "name": "buyOrder",
              "type": "bool"
            },
            {
              "internalType": "bytes32",
              "name": "ticker",
              "type": "bytes32"
            },
            {
              "internalType": "uint256",
              "name": "amount",
              "type": "uint256"
            },
            {
              "internalType": "uint256",
              "name": "price",
              "type": "uint256"
            }
          ],
          "internalType": "struct Wallet.Order[]",
          "name": "",
          "type": "tuple[]"
        }
      ],
      "stateMutability": "view",
      "type": "function"
    }
  ],
  "bytecode": "0x608060405234801561001057600080fd5b50610475806100206000396000f3fe608060405234801561001057600080fd5b506004361061002b5760003560e01c8063ba58ea6814610030575b600080fd5b61004a60048036038101906100459190610200565b610060565b60405161005791906103ee565b60405180910390f35b6060600080848152602001908152602001600020600083600181111561008957610088610410565b5b600181111561009b5761009a610410565b5b8152602001908152602001600020805480602002602001604051908101604052809291908181526020016000905b8282101561019457838290600052602060002090600502016040518060c0016040529081600082015481526020016001820160009054906101000a900473ffffffffffffffffffffffffffffffffffffffff1673ffffffffffffffffffffffffffffffffffffffff1673ffffffffffffffffffffffffffffffffffffffff1681526020016001820160149054906101000a900460ff161515151581526020016002820154815260200160038201548152602001600482015481525050815260200190600101906100c9565b50505050905092915050565b600080fd5b6000819050919050565b6101b8816101a5565b81146101c357600080fd5b50565b6000813590506101d5816101af565b92915050565b600281106101e857600080fd5b50565b6000813590506101fa816101db565b92915050565b60008060408385031215610217576102166101a0565b5b6000610225858286016101c6565b9250506020610236858286016101eb565b9150509250929050565b600081519050919050565b600082825260208201905092915050565b6000819050602082019050919050565b6000819050919050565b61027f8161026c565b82525050565b600073ffffffffffffffffffffffffffffffffffffffff82169050919050565b60006102b082610285565b9050919050565b6102c0816102a5565b82525050565b60008115159050919050565b6102db816102c6565b82525050565b6102ea816101a5565b82525050565b60c0820160008201516103066000850182610276565b50602082015161031960208501826102b7565b50604082015161032c60408501826102d2565b50606082015161033f60608501826102e1565b5060808201516103526080850182610276565b5060a082015161036560a0850182610276565b50505050565b600061037783836102f0565b60c08301905092915050565b6000602082019050919050565b600061039b82610240565b6103a5818561024b565b93506103b08361025c565b8060005b838110156103e15781516103c8888261036b565b97506103d383610383565b9250506001810190506103b4565b5085935050505092915050565b600060208201905081810360008301526104088184610390565b905092915050565b7f4e487b7100000000000000000000000000000000000000000000000000000000600052602160045260246000fdfea264697066735822122030995cd51f718623113e81ad34d4cbe214cff72cacf331d724b79aae12c26aff64736f6c634300080f0033",
  "immutableReferences": {},
  "source": "pragma solidity  ^0.8.0;\npragma abicoder v2;\n\n\ncontract Wallet {\n    \n    enum Side {\n        BUY,\n        SELL\n    }\n\n\n /* we create an orderstruct which will represent every order with its details */\nstruct Order {                              \n    uint id;\n    address trader;\n    bool buyOrder;\n    bytes32 ticker;\n    uint amount;\n    uint price;\n}\n\n mapping (bytes32 => mapping(Side=>Order[])) orderBook; /* we create a mapping with the orderbook for every coin. the mapping takes the ticker of the coin, then if the order is buy or seel */\n\nfunction getOrderBook (bytes32 ticker, Side side) view public returns (Order[] memory) {\nreturn orderBook[ticker][Side(side)];\n\n}\n\n}",
  "sourcePath": "/Users/petartodorov/Desktop/coding/solidity/A-DEX-prototype/contracts/Dex.sol",
  "compiler": {
    "name": "solc",
    "version": "0.8.15+commit.e14f2714.Emscripten.clang"
  },
  "schemaVersion": "3.4.8",
  "updatedAt": "2022-07-29T14:42:11.440Z",
  "devdoc": {
    "kind": "dev",
    "methods": {},
    "version": 1
  },
  "userdoc": {
    "kind": "user",
    "methods": {},
    "version": 1
  }
}